:100000000C9452020C9499020C9499020C9499024B
:100010000C9499020C9499020C9499020C949902F4
:100020000C9499020C9499020C94F02F0C94C43007
:100030000C94A02A0C9499020C9499020C949902A5
:100040000C9499020C9499020C9499020C949902C4
:100050000C9499020C94F72A0C9499020C9499022E
:100060000C9499020C9499020C9499020C949902A4
:100070000C9499020C9499020C9499020C94990294
:100080000C9499020C9499020C9499020C94990284
:100090000C9499020C9499020C9499020C94990274
:1000A0000C9499020C9499020C9499020400050096
:1000B00006000700080009000A000B000C000D00F4
:1000C0000E000F00100011001200130000000000CD
:1000D000000000002A2B28000000000000000000A3
:1000E0000000000000000029000000002C1E342049
:1000F000212224342627252E362D3738271E1F206F
:100100002122232425263333362E37381F040506B3
:100110000708090A0B0C0D0E0F10111213141516F7
:100120001718191A1B1C1D2F3130232D35040506F5
:100130000708090A0B0C0D0E0F10111213141516D7
:100140001718191A1B1C1D2F3130354C00000000E8
:10015000000000000000000000000000000000009F
:10016000000000000000000000000000000000008F
:100170007E0F00D4FFFFFFC700000078FD377A58DC
:100180005A000004E6D6B446020021011600000021
:10019000742FE5A3E000F300A15D003D8889C654FB
:1001A00036C3174FE4EA4401A7E83DE073F3F6BB1A
:1001B000D08174FA7583EFB5373A3CB9D4C96A7106
:1001C0006869215CFE513148DC582D47F7A3144F74
:1001D00011DB704C6173A3EB44C1A9309405E3CDEE
:1001E0002A440DDB00E547E949F4D19816080AB71F
:1001F0004BA2B92EA2FB5DD4C6CB79CF6B9B26E672
:10020000B793235FF0D6156C0FED0F3304FD8C50C0
:1002100020FDE918B37854E438127D9F7656173FD5
:10022000C6EF6D2E4400D0719113FA8282A1B81BE3
:10023000D64209FE6AEC066F04813BC20000000052
:10024000052EDED31F34B3030001BD01F40100000D
:100250000116A750B1C467FB020000000004595A00
:1002600001000100FC03000002000200F80300008E
:1002700003000100FD03000004000200E2034E1F22
:1002800005000100FE03000006000200E403000078
:1002900007000200FA03000008000100FF0300004D
:1002A00009000200E603291F0A000200E803291FD3
:1002B0000B000200EA03291F0C000200EC03291FB7
:1002C0000D000200EE03291F0E000200F003291F9B
:1002D0000F000200F203291F10000200F403291F7F
:1002E00011000200F603291F1200020000040000A2
:1002F00013000200020400001C0376006900610084
:100300006C003A0066003600340063003200620080
:1003100033006300000016035A004D004B005F00DD
:10032000310036005F004B00450059000000160305
:100330005A0069006400640079004D0061006B00A0
:100340006500730000000403090409025B00030157
:1003500000A0FA09040000010301010009211101B4
:1003600000012240000705810308000A090401007A
:1003700002030000000921110100012222000705EB
:100380008203200001070503032000010904020085
:100390000103000000092111010001228A00070564
:1003A000840320000A12010002000000084675774D
:1003B000480200010203010660FF0961A101096210
:1003C000150026FF00952075088102096315002697
:1003D000FF00952075089102C005010902A1018561
:1003E000020901A10005091901290515002501953A
:1003F0000575018102950175038101050109300927
:10040000311581257F9502750881060938158125EA
:100410007F950175088106050C0A38021581257F34
:10042000950175088106C0C005010906A101850571
:10043000050719E029E715002501950875018102D6
:100440000507190029EF1500250195F075018102B6
:100450000508190129059505750191029501750396
:100460009101C005010906A101050719E029E71559
:100470000025019508750181029501750881010526
:1004800007190029FF150026FF0095067508810051
:100490000508190129059505750191029501750356
:1004A0009101C00011241FBECFEFDAE0DEBFCDBF47
:1004B00004B603FE27C08091150490911604A09104
:1004C0001704B09118048730904BA740B04BD1F47B
:1004D000109215041092160410921704109218042A
:1004E00014BE84B7877F84BF0FB6F894A895809117
:1004F0006000886180936000109260000FBEE0E0B1
:10050000F8E3099511E0A0E0B1E0E6ECF6E602C000
:1005100005900D92A634B107D9F724E0A6E4B1E026
:1005200001C01D92A531B207E1F70E94A8140C94F6
:100530002B330C9400009C013A9521153F4150F556
:10054000FC01EE27F170BC0166277270AC014427F4
:1005500054709C012227387094FF0EC080E1EF2B6D
:1005600009F480E0672B09F08062452B09F0806474
:10057000232B89F08068089581E0EF2B09F480E057
:10058000672B09F08260452B09F08460232B19F05A
:100590008860089580E00895CF93DF93EC010E9476
:1005A0009B029E01205E31092830310510F0209712
:1005B00039F40E94ED058C2FDF91CF910C946805E2
:1005C0000E94FB05F8CFCF93DF93EC010E949B05BF
:1005D000CE010E949B029E01205E31092830310528
:1005E00010F0CD2B21F4DF91CF910C94F405DF9125
:1005F000CF910C94020681E0089581E008950C9457
:10060000FD0208950C9401031F93CF93DF9300D054
:1006100000D00F92CDB7DEB749835A836B833091F8
:10062000480189819A8131111DC06623B9F02223C6
:10063000A9F00E94D509182F682F89819A810E94FC
:100640007A0969817A81812F0F900F900F900F9016
:100650000F90DF91CF911F910C94101E0E94A90959
:10066000182FEFCF0E94D50969817A81EDCFFC0167
:10067000262F86819781009739F4408151816281CC
:10068000738184810C9404030895CF93DF93EC016C
:1006900061E00E943703BE01DF91CF910C94922458
:1006A000CF93DF93EC0160E00E943703BE01DF913E
:1006B000CF910C940203E1E0F0E0DF0102C0AA0F49
:1006C000BB1F6A95E2F7BD01DF0102C0AA0FBB1F85
:1006D0004A95E2F76A2B01C0EE0F2A95EAF7962FAA
:1006E0009823961302C08E2B0895E0958E230895CB
:1006F000242F462F682F809151010E945B030C9498
:1007000037090E9485130E94E8040C94A0130E94EC
:1007100069270E944E240E9427280C94A313089551
:100720000E9417060E948F032FEF84E39CE0215064
:1007300080409040E1F700C000000C941B2B0F9309
:100740001F93CF93DF93EC018B010E94C726B80162
:10075000CE010E94C217882309F448C0B801CE0117
:100760000E94FF02882309F441C0B801CE010E9413
:100770000F278823D9F1B801CE010E948A28882347
:10078000A9F1B801CE010E940C21882379F1B801AA
:10079000CE010E945E21882349F1B801CE010E945A
:1007A0008122882319F1F8018281882361F0CA35FA
:1007B000FDE5DF0721F170F4C115ECE5DE07A1F0DE
:1007C000CE3DDC45C9F0C801DF91CF911F910F915B
:1007D0000C94FB02CB358DE5D807A1F0CC35DD4577
:1007E00091F70E94EF0EEFCF0E94900380E0DF911F
:1007F000CF911F910F9108950E94A410F7CF0E94EE
:10080000F80EE1CF0E94FB0EDECFCF93DF93EC0119
:1008100061E00E943703BE01DF91CF910C949F03EA
:10082000DF92EF92FF920F931F93CF93DF93E82F06
:10083000F0E0E453FF4FD490282F26952695269577
:1008400030E0F901E459FE4F0491877010E0082E62
:1008500002C0159507950A94E2F701701127F90176
:10086000E45AFE4FE490F12C082E02C0F594E79470
:100870000A94E2F791E0E922FF24F901E45BFE4FDC
:10088000C491D0E002C0D595C7958A95E2F7C170B2
:10089000DD270115110519F081EE0E946805E114AC
:1008A000F10419F086EE0E9468058D2D0E94E10585
:1008B000EF2819F086EE0E949B05012B19F081EEBE
:1008C0000E949B05CD2B51F08CE2DF91CF911F91BF
:1008D0000F91FF90EF90DF900C94E105DF91CF91A5
:1008E0001F910F91FF90EF90DF900895EF92FF928C
:1008F0000F931F93CF93DF93EC01162F0AE08881AB
:10090000882309F454C0813009F04EC089818130B8
:1009100099F47E0122E0E20EF11C8A810E94E10539
:10092000E7012196812F815050F3EFE9FFE03197E5
:10093000F1F700C00000F7CF823041F47E0182E081
:10094000E80EF11C8A810E946805EACF833041F4E9
:100950007E01E2E0EE0EF11C8A810E949B05E0CF51
:10096000843011F02196DDCF2A81229690E080E03C
:10097000AE014F5F5F4F2053330B2A30310548F0F3
:10098000019778F2EFE9FFE03197F1F700C000003E
:10099000F7CF089FB001099F700D1124C901860F80
:1009A000971F2981EA01E4CF0E941004BACFDF919A
:1009B000CF911F910F91FF90EF90089560E00C94FC
:1009C000760408950C94E10481E008950C94E40405
:1009D0000895CF93C82F0E94E2048C2FCF910C94DE
:1009E000E604019708F40895EFE9FFE03197F1F785
:1009F00000C00000F6CFCF93DF93CDB7DEB72D97C1
:100A00000FB6F894DEBF0FBECDBF49875A876B87FC
:100A10007C878D878C859D85892B29F0CA01892348
:100A20008F3F09F046C08B8581110E94210F1D82E6
:100A30001E821F82188685E0FE013996DE0111961E
:100A400001900D928A95E1F78091E4039091E5037E
:100A5000892B61F00E94BC0E882319F082E00E946D
:100A6000DE0F0E94980E81110E94680F8C819D817B
:100A7000892B99F429813A814B815C816D817E813A
:100A80008F8198850E94E10D2D960FB6F894DEBFF8
:100A90000FBECDBFDF91CF91089589819A818923BF
:100AA0008F3F41F3CE0101960E9445038111E2CFB1
:100AB000EBCF8091490190914A01019690934A01B0
:100AC00080934901B0CFFC01808191810C94020A8E
:100AD000CF93C82F882369F18CEF8C0F813AA0F453
:100AE0006C2F80910001909101010E94A52988231B
:100AF00029F08C2F0E94880E0E94760F8C2F0E9466
:100B0000810ECF910C94760F80E28C0F883048F4E0
:100B1000C77081E001C0880FCA95EAF70E94010FF3
:100B2000F0CFC03F30F08C2F0E944B15CF910C942A
:100B30003616CF910895882361F19CEF980F913A72
:100B400020F40E94880E0C94760F90E2980F983053
:100B500050F4877091E001C0990F8A95EAF7892FC8
:100B60000E94070FF0CF9BE5980F933020F490E0A0
:100B700080E00C94652998E5980F973120F490E077
:100B800080E00C947B29803F20F00E94B3150C94E8
:100B9000361608951F93CF93DF93182FEB010E9411
:100BA0006805209731F4812FDF91CF911F910C942C
:100BB0009B058FE99FE00197F1F700C000002197A6
:100BC000F0CF6091020470910304893321F06091A9
:100BD0000004709101040C94CA05882321F00E943E
:100BE000010F0C94760F0895882321F00E94070FBF
:100BF0000C94760F0895882321F00E94140F0C9412
:100C0000760F0895882321F00E941A0F0C94760F16
:100C100008950E94210F0E94310F0E94760F0E94BA
:100C20005D170C9436160E948F0E0C9409060E94D4
:100C30000E0F0C941306E92FE295EF70E250EE30A0
:100C400070F4F0E0E35DFC4C0C949E32803F19F0B0
:100C500020F4883E20F481E00895843FE1F380E0B1
:100C60000895883EC0F3813FD1F7F5CF93FB8827E5
:100C700080F90895FC0186819781009721F00E94F8
:100C800095110C941B06808191810E94020AF9CF74
:100C9000BF92CF92DF92EF92FF920F931F93CF9369
:100CA000DF937C01EB01FC010281158112951F701D
:100CB0000E94D60EC82E8823A1F0C02E002389F0F2
:100CC0008D2F807F803429F080E28C0FC12C8830FA
:100CD00040F082E00E94DE0F0E94D60E91E0C82E06
:100CE000C926BD2EB2942FE0B222EB2DF0E0E55CD8
:100CF000FC4C0C949E32FD2FFF70DF2E8D2F807FD9
:100D000019F0D29490EFD9220023A9F0DD2059F0F8
:100D100080E28C0F883010F0C11109C08D2D0E9427
:100D2000010F0E94760F8C2F0E94680514C08D2D34
:100D30000E94140FF6CF8C2F0E949B05DD2059F0E6
:100D400080E28C0F883010F0C11134C08D2D0E94CC
:100D5000070F0E94760FEB2DE850FF0B349720F41D
:100D60000E9431290E94E904CE010E941B068111D4
:100D7000CCC110924A0110924901CC2009F4E6C17D
:100D80000E94B80E80FDE2C1F70112820E94B20EED
:100D90000E944809C7010E94CE080E94B20EDF914E
:100DA000CF911F910F91FF90EF90DF90CF90BF9068
:100DB0000C9453098D2D0E941A0FCBCF2D2F2F701D
:100DC000D22E8D2F807F803219F0D29480EFD822DE
:100DD000CC23E9F0C13009F455C0002309F45CC00C
:100DE000112391F120E0F7014081518162817381EB
:100DF00084810E940403B7010E946B20811193CF6C
:100E0000F701858180FF8FCF8F7085831DC0002300
:100E1000E9F0111106C00E94340F8D290E94ED05E2
:100E20009ACF113031F40E94340F8D290E94500F57
:100E300092CF8091FE03823070F38113ECCF0E9439
:100E4000680F8D2D0E943A0F8D2DE8CF111106C02D
:100E50000E94680F8D2D0E94F4057DCF8091FE03C6
:100E6000113059F4823008F476CF0E94FE0E8D21A5
:100E700009F471CF0E94430FEBCF823048F318136F
:100E8000E7CF69CF002321F0163008F064CFDCCF24
:100E9000153008F060CFDECF1123E1F2809102041B
:100EA00090910304C93321F08091000490910104D2
:100EB0000E94F1048C2F0E949B054DCF8C2F0023A4
:100EC00039F00E944B150E9436160E94361643CF09
:100ED0000E94B315FACF8D2F837081F501113BCF9E
:100EE0004C2F429546954770440F440F8C2F8F70BE
:100EF000042E01C0880F0A94EAF72C2F2071C4FF3A
:100F000007C02FE030E001C0220F4A95EAF7209594
:100F10009D2F969596959370822B923049F058F4B8
:100F2000913019F00E94290916CF0E94240913CF8D
:100F30000E942E0910CF0E9422090DCF8695002312
:100F400011F08D2F8170882309F405CF4C2F429525
:100F500046954770440F440F8C2F8F70042E01C0AC
:100F6000880F0A94EAF72C2F2071C4FF07C02FE0E6
:100F700030E001C0220F4A95EAF720959D2F969503
:100F800096959370822B923049F058F4913019F075
:100F90000E946F09E0CE0E946A09DDCE0E947409AA
:100FA000DACE0E943709D7CEFD2FFF70DF2E002347
:100FB00029F08F2F0E9448098C2F30CF8C2F0E9450
:100FC000F4058D2D0E945309C6CEC23F09F43FC0DF
:100FD00060F4C03F31F1C13F91F1002309F480C0BA
:100FE0001111A1CE8D2F8F712FC0C33FA9F1C43F26
:100FF000A1F78091FE03823008F45BC0002309F45E
:1010000044C00E94950E0E94070F0E94B80E8430C3
:1010100069F50E94D50F8D2F8F710E945309C12C45
:101020009ACE002341F0153008F095CE8D2F8F71A8
:101030000E945F0990CE163008F08DCEF7CF8D2F2D
:101040008F71002309F4BECF0E94480984CE8D2FF2
:101050008F710023C9F3B6CF002329F08D2F8F7134
:101060000E94400978CE0E943D0975CE8091FE0312
:101070001817A8F62D2F2F71D22E822F0E94480903
:1010800063E08D2D0E94B90FCACF0E94950E0E9479
:10109000010F8091FE03181740F00E94D50F0E94A7
:1010A000430F64E08D2F8F71EDCF81E00E94DE0F42
:1010B000B6CF002359F03D2F3F71D32E832F0E94CE
:1010C000480963E08D2D0E94B90F45CE81E00E9452
:1010D000DE0F123008F43FCE82E00E94DE0F3BCEDE
:1010E0001111DCCE8D2F8F716DCF4D2F4F706C2F66
:1010F000C7010E9489110E94300A2DCE4D2F4F70DA
:101100006C2FC7010E948C1126CE002319F01111FB
:1011100030CE33CE11112DCE20E0F7014081518128
:101120006281738184810E940403B7010E9476204A
:10113000882309F41ECE8091490190914A010297BB
:1011400009F017CE8C2F0E94E10513CEDF91CF91CD
:101150001F910F91FF90EF90DF90CF90BF90089577
:101160000F931F93CF93DF93EC018E819F810097A4
:1011700079F00E9495118C010E9479090E94210941
:10118000B801CE01DF91CF911F910F910C944806C9
:10119000688179818A810E940C0AEDCFCF93DF9319
:1011A000EC018B819C81892B29F08881998189238D
:1011B0008F3F59F4DF91CF910895CE010E94B0087E
:1011C000CE01DF91CF910C945003CE010E94050413
:1011D0008111F3CF0E94D60E882361F38A81882380
:1011E00049F382E0DF91CF910C94DE0FCF93DF9330
:1011F00000D000D00F92CDB7DEB70F900F900F90B8
:101200000F900F90DF91CF910895CF93DF93CDB7DB
:10121000DEB728970FB6F894DEBF0FBECDBF289675
:101220000FB6F894DEBF0FBECDBFDF91CF9108950A
:1012300008950C9418090E941909809352010C9486
:10124000090608950C941B0990915201892B0C9466
:101250001B099091520189230C941B099091520112
:1012600089270C941B090C9418090C9433090E94CB
:101270003509809351010C94090680E00C943709DC
:1012800091E001C0990F8A95EAF7892F0C943709EC
:1012900021E030E001C0220F8A95EAF780915101E8
:1012A000822B0C94370921E030E001C0220F8A958F
:1012B000EAF720958091510182230C94370921E0AF
:1012C00030E001C0220F8A95EAF780915101822710
:1012D0000C94370990915101892B0C943709909106
:1012E000510189230C9437099091510189270C945D
:1012F000370908959E3F61F1990F990FE92FE80F83
:101300008E2F877041E001C0440F8A95EAF7E69579
:10131000E695E69583E0E89FF0011124E55BFE4F3A
:1013200030E020E070E05191DF011197CB01022EF7
:1013300002C0969587950A94E2F78170819585277A
:10134000842385278C932F5F3F4F2330310559F736
:1013500008959E3F41F1990F990FE92FE80F9E2FB5
:101360009770E695E695E69583E0E89FF0011124F5
:10137000E55BFE4F50E040E080E0219130E0092E37
:1013800002C0369527950A94E2F721703327042E80
:1013900001C0220F0A94EAF7822B4F5F5F4F433060
:1013A000510559F7089580E00895CF92DF92FF929A
:1013B0000F931F93CF93DF936C01009151018091A4
:1013C0005201082BC7E0D0E010E0FC2EC8010C2E23
:1013D00002C0959587950A94E2F780FD0CC021978D
:1013E000A0F7F12C8F2DDF91CF911F910F91FF90DE
:1013F000DF90CF900895B6018C2F0E948A1201973A
:1014000071F3F0CFCF93DF93EC010E94D509BE01B9
:10141000DF91CF910C948A121F93CF93DF93EB014E
:1014200090914801992331F0CB01DF91CF911F9129
:101430000C94020A882379F0CB010E94D509182F59
:10144000682FCE010E947A09BE01812FDF91CF91D2
:101450001F910C948A12CB010E94A909182FF4CF76
:10146000EF92FF920F931F93CF93DF938C01892B01
:1014700081F0F12CEE24E394E8012196F8018491A7
:10148000843770F4843008F05FC08130B1F082306E
:10149000A1F1DF91CF911F910F91FF90EF900895EF
:1014A000853709F44CC008F43DC09CE7980F90378D
:1014B00080F78F770E949B0549C00E5F1F4FFE018A
:1014C000849190E2980F983060F48770FE2D01C0EF
:1014D000FF0F8A95EAF78F2F0E94240F0E94760F44
:1014E00002C00E9468058F2D815030F2EFE9FFE0C5
:1014F0003197F1F700C00000F7CF0E5F1F4FFE01DC
:10150000849190E2980F983050F48770FE2D01C0BE
:10151000FF0F8A95EAF78F2F0E942A0FDFCF0E94D4
:101520009B05E1CF0E5F1F4FFE01C491C150D8F261
:101530008FE99FE00197F1F700C00000F7CF0E5F41
:101540001F4FFE01F490CFCF0E9468058E01CBCFD4
:10155000CF93DF93C0915301809154018C1303C04A
:10156000DF91CF910895D0E0FE0183E0EE0FFF1FE1
:101570008A95E1F7EB5AFE4F2081318142815381F8
:1015800064817581868197810E9405092196C770C3
:10159000E3CF2091950130919601409197015091B0
:1015A00098016091990170919A0180919B019091AD
:1015B0009C010C9405092091530190915401291329
:1015C00002C080E0089530E0F90153E0EE0FFF1F04
:1015D0005A95E1F7EB5AFE4F5181561306C05081E0
:1015E000581303C05281541304C02F5F3F4F27701C
:1015F000E6CF81E00895EF92FF920F931F93CF9370
:10160000DF9380919A01807F31F480919701C0919E
:101610005301811119C0DF91CF911F910F91FF905C
:10162000EF9008952091980130919901D0E0211513
:10163000310541F08091950190919601482F492301
:101640004F3F39F42196C770809154018C13EACF33
:10165000E2CF8E0143E0000F111F4A95E1F7F80138
:10166000EB5AFE4F41814913EDCF90819813EACF99
:1016700082818111E7CFE380F480E21AF30A60E00F
:1016800085E991E00E94370365E971E00E946220DC
:10169000E816F906B8F680919A018F708061809300
:1016A0009A01F801E65AFE4F80818F708061808335
:1016B00085E991E00E94CE08DF91CF911F910F91B3
:1016C000FF90EF900C94A80A6F927F928F929F9256
:1016D000AF92BF92CF92DF92EF92FF920F931F9340
:1016E000CF93DF93CDB7DEB765970FB6F894DEBF23
:1016F0000FBECDBF8C0185E0F801DE01519601904F
:101700000D928A95E1F7D8011296FC90129785E91F
:10171000882E81E0982E2091980130919901211511
:10172000310541F0809195019091960189238F3F79
:1017300009F0E9C1F11010C1C8010E94CE0882C0B1
:1017400060E085E991E00E943703B8010E946720BC
:10175000811116C2CD2829F0872D86218F3F09F0EF
:1017600011C180E0B82FB170CB2E80FF29C04F2D62
:10177000672D862D0E94DB0AD82E811121C0698A2F
:101780007A8A89899A890E94020A292F22952F70C4
:10179000223050F0243078F49F7051F0F801958198
:1017A000907F31F4ED2C1AC19F7011F08823D1F392
:1017B000805E8830B8F3C8010E94CE08DC2CF2CFDE
:1017C000FF2009F40BC180919A01816080939A01F6
:1017D000E12C04C1892B49F08091950190919601EB
:1017E000282F29232F3F09F00FC1C8010E943A0674
:1017F000882309F4A1CFFF2009F49ECF80919A019C
:101800008032A0F020919501309196013A87298786
:101810001B86DD86CC868E8780919B0190919C01F2
:10182000988B8F87CE0109960E94CE0888E0F80138
:10183000A5E9B1E001900D928A95E1F70E94FB0ABB
:101840000E94C90AEE24E394C9C0211112C07C2D64
:10185000DD8ACC8AA3016F2D8D890E94F60885E967
:1018600091E00E94CE0888E0F40111928A95E9F790
:10187000A5C18091980190919901892B49F080919F
:10188000950190919601282F29232F3F09F0E4C05C
:10189000C8010E943A06882309F44ECFFF2009F4BC
:1018A0004BCF80919A01803208F2209195013091BE
:1018B00096013A8329831B82DD82CC828E838091BC
:1018C0009B0190919C0198878F83CE010196ACCFAC
:1018D00060E085E991E00E94370365E971E00E94CC
:1018E0006220A816B90650F5EF2CFF2009F424CF8A
:1018F0008091980190919901892B49F080919501EF
:1019000090919601282F29232F3F09F0CBC0C801C1
:101910000E943A0681118ACF80919A01816080935A
:101920009A01C8010E94CE0859C088E0F801A5E9D3
:10193000B1E001900D928A95E1F750C07C2DDD8ACF
:10194000CC8AA3016F2D8D890E94F60888E0F401EE
:1019500011928A95E9F77DC0C8010E943A06E82EE7
:10196000882309F4E9CE88E0F801A5E9B1E0019007
:101970000D928A95E1F785E991E00E9463050E9446
:10198000FB0A67C081E08F25EDCE81E08F2501C184
:10199000D80111962C912913E7C0F8019081981372
:1019A000E3C020919B0130919C018681978128178B
:1019B000390709F0D9C0F110D7C080919A018F7012
:1019C000806180939A010E94C90A85E991E00E9492
:1019D000CE0880919A01D80115968C938E2D65962C
:1019E0000FB6F894DEBF0FBECDBFDF91CF911F9130
:1019F0000F91FF90EF90DF90CF90BF90AF909F90AE
:101A00008F907F906F900895F80121812913EDCE7A
:101A1000D8019C919813E9CE20919B0130919C01B3
:101A200016968D919C9117972817390709F0DDCEEE
:101A300080919A01F110D9CE15968C93C8010E941D
:101A4000CE0888E0F801A5E9B1E001900D928A95F1
:101A5000E1F70E94C90AC2CFD80111962C9129132F
:101A600017CFD8019C91981313CF20919B013091EF
:101A70009C0116968D919C9117972817390709F0AC
:101A800007CFF11005CF80919A0115968C93C8016C
:101A90000E94CE08E5E9F1E088E0DF011D928A9519
:101AA000E9F79CCFF8012181291331CFF80190810A
:101AB00098132DCF20919B0130919C0186819781B5
:101AC0002817390709F023CF60E085E991E00E94EB
:101AD0003703B8010E947020811127CF80919A01AD
:101AE00080FD23CF982F907F09F41FCFD801159642
:101AF0008C931597903F09F4A1CF982F907F905F1A
:101B00008F70892B99CF6C9011967C9011971396BA
:101B1000CD90DC90E09097015601A21AB30AEE2016
:101B200009F4D6CE60E085E991E00E94370365E9CB
:101B300071E00E94622020919A01207FA816B906C8
:101B400008F083CE8091980190919901211142CEA5
:101B5000EF2C892B49F08091950190919601282FC7
:101B600029232F3F09F014CF60E085E991E00E941E
:101B70003703B8010E946220843F914008F4E0CD11
:101B8000C114D10429F0872D86218F3F09F0FDCEA5
:101B900080E080FFDFCD4F2D672D862D0E94DB0A70
:101BA000882309F4D7CD85E991E00E94CE0888E02A
:101BB000E5E9F1E0DF011D928A95E9F70E94C90A83
:101BC00007CECF93DF93CDB7DEB760970FB6F8940B
:101BD000DEBF0FBECDBF29873A874B875C876D87F5
:101BE0007E878F87988BCE0109960E94640B88238D
:101BF000D1F08C859D85892B39F029853A85822FF6
:101C000083238F3F09F074C0809153019091540158
:101C1000891348C060960FB6F894DEBF0FBECDBFE3
:101C2000DF91CF91089588E0FE013996DE0111968B
:101C300001900D928A95E1F78C859D85892B21F382
:101C400089859A8589238F3FF9F2A0915401B0E0EC
:101C5000CD01019687709927209153012817190605
:101C600071F40E941706109254011092530188E0FB
:101C7000E5E9F1E0DF011D928A95E9F7C5CF93E030
:101C8000AA0FBB1F9A95E1F7AB5ABE4F98E0FE0131
:101C9000319601900D929A95E1F7809354010E943C
:101CA000A80AB2CFB8E08B9FC00111248B5A9E4F77
:101CB0000E94640B882309F4ADCFE091530128E022
:101CC000E29FF0011124EB5AFE4F208131814281C5
:101CD000538164817581868197810E940509809175
:101CE000530190E0019687709927809353018CCF20
:101CF0004B855C856D857E858F8598890E94050959
:101D000083CF682F80910001909101010C94252AC6
:101D1000682F80910001909101010C94302A8091EC
:101D20000001909101010C943B2A8091A201089539
:101D30008091E4039091E503892B89F00E94D02AD9
:101D40002091A0013091A101AC01421B530B81E015
:101D50002091E4033091E5034217530708F480E033
:101D60008170089580919F01859585958595089549
:101D700080919F01877008950E94D02A20919D0133
:101D800030919E01821B930B2091E4033091E50377
:101D90008217930748F080919F0182FB882780F982
:101DA00091E089278170089580E0FCCF90919F0198
:101DB000977081E009F480E008959091870392FB89
:101DC000222720F9281751F080FB92F9909387037E
:101DD00080918603909187030C942110089580913F
:101DE000870382FB882780F991E089270C94DD0E18
:101DF00081E00C94DD0E80E00C94DD0E8091C60134
:101E000008959091C601892B8093C601089580950D
:101E10009091C60198239093C60108951092C6012F
:101E200008958091C50108959091C501892B8093F3
:101E3000C501089580959091C50198239093C5019F
:101E400008951092C50108959091C401892B809343
:101E5000C401089580959091C40198239093C40182
:101E600008951092C40108958091A30108950895E2
:101E70000C94370F9091A201981721F08093A20142
:101E80000C94380F08958091A201882329F01092B4
:101E9000A20180E00C94380F089508950C944D0F22
:101EA000CF93C82F8091870382FD10C08091A3013A
:101EB0008C1761F00E94D02A9093A1018093A00119
:101EC000C093A3018C2FCF910C944E0FCF91089506
:101ED0008091A301882349F01092A3011092A101DF
:101EE0001092A00180E00C944E0F0895E091000143
:101EF000F09101018091C6018083E0910001F09191
:101F0000010180819091C501892B8083E0910001BE
:101F1000F091010180819091C401892B808380918F
:101F2000A3018823E9F08091E4039091E503892BD4
:101F300029F00E94980E81110E94680FE091000123
:101F4000F091010180819091A301892B8083809180
:101F50000001909101010E94912981110E94680F56
:101F600080910001909101010C943D2908950C94F9
:101F7000B60F9091870392FD16C098E0899F90015B
:101F80001124622B60939F010E9448090E94D02A6D
:101F900090939E0180939D0180919F0185958595E9
:101FA00085950C94B70F0C94480910929F011092DC
:101FB0009E0110929D0180E00C94B70F90919F01BB
:101FC0008095892380939F01282F277039F4282F2B
:101FD000082E000C330B9217130621F490918703FF
:101FE00092FF07C08595859585950E9453090C94AD
:101FF000D50F08956FEF7FEF90E080E00C940D33E4
:1020000090E080E00E94E9328A3E9E4F11F40C94E9
:102010006B1780E0089582E090E00C94E13283E059
:1020200090E00C94E132CF9384E090E00E94E132A2
:10203000C82F82E290E00E94E132982F8C2FCF913E
:102040000895CF93C92F682F84E090E00E94EF326B
:102050006C2F82E290E0CF910C94EF32AB01BC0187
:102060008FE090E00C940133AB01BC0183E190E080
:102070000C94013360E070E0CB010C94341060E00C
:1020800070E0CB010E942E100C943A106AEE7EEFA5
:1020900090E080E00E940D3360E082E090E00E94DA
:1020A000EF3260E083E090E00E94EF321092520144
:1020B00060E084E090E00E94EF3260E082E290E035
:1020C0000E94EF3260E085E090E00E94EF3260E035
:1020D00086E090E00E94EF326FEF87E090E00E9490
:1020E000EF3240E050E0BA0188E090E00E94013316
:1020F00060E08DE090E00E94EF3240E050E0BA01F5
:1021000088E190E00E94013360E087E190E00E9466
:10211000EF3240E050E0BA018CE190E00E940133E0
:1021200070E060E080E290E00E940D3340E050E01B
:10213000BA0188E190E00E94013380E00E94841798
:102140000E94AA170C943F100C944610682F8EE042
:1021500090E00C94EF320E94DC2A6093D0017093DF
:10216000D1018093D2019093D3016093CC017093FD
:10217000CD018093CE019093CF01089585B78068FB
:1021800085BF85B7806885BF0895089508950C942C
:10219000C51008950C94C9100E94BE1088E693E102
:1021A0000E942C2B0E94291B0E94701F0E94C610A7
:1021B0000C94C71081E008950C94DA1008950895E6
:1021C0000E94DE100C94DF100E94C72A0E94B917EB
:1021D0000E9417140C94CA10AF92BF92CF92DF9254
:1021E000EF92FF920F931F93CF93DF93CDB7DEB79C
:1021F0002A970FB6F894DEBF0FBECDBF0E942F14F2
:1022000081110E94AB1088ECA82E81E0B82E10E05E
:1022100000E0C02E802F0E94A513E82EF501F1905A
:102220005F01F81609F44DC08091D40181FD0E9430
:10223000AB138F2D8E25D12CFF24F394982F9F2143
:10224000D9F10E94DC10882399F0DE82CF82EF2042
:1022500081E009F480E088870E94D02A8160782F8D
:102260009A8789874E815F8168858A850E94FB04F1
:10227000F801E853FE4F8081F826F0820E94511643
:102280000E9431299091C701891791F10E9431294B
:102290008093C7012A960FB6F894DEBF0FBECDBF5C
:1022A000DF91CF911F910F91FF90EF90DF90CF9032
:1022B000BF90AF900C94E904D394FF0CF4E0DF12CC
:1022C000BDCF0F5F1F4F0430110509F0A2CF8FEF74
:1022D00089838A831B820E94D02A8160782F9D8304
:1022E0008C8349815A816B818D810E94FB04C6CF0A
:1022F0002A960FB6F894DEBF0FBECDBFDF91CF9107
:102300001F910F91FF90EF90DF90CF90BF90AF9013
:10231000089590E080E008950895FC01EE0FFF1FFE
:10232000E458FE4F859194910895CF93DF930E94D6
:102330008E12EC01811521E59207E8F5811530E553
:10234000930708F09BC08F3F910509F0F0F4803FA0
:10235000910508F085C0803E910580F4803C910590
:1023600008F080C08130910561F0009751F004972A
:10237000813A910530F0D0E0C0E003C0883E91057D
:10238000D0F7CE01DF91CF9108958115904338F4B5
:10239000C11580E2D807A8F3CE019F7065C0C115B2
:1023A00090E4D90708F067C0CE019927D3FF60C039
:1023B000EC01D86CE6CF811525E5920700F5811573
:1023C00034E5930708F08EC0811543E5940708F0C3
:1023D00076C0C11582E5D80708F46CC0CE018370C1
:1023E000992721E030E002C0220F331F8A95E2F7DF
:1023F000C695C69580E2C89FE001112457C0C1155B
:1024000099E5D907A8F4C11528E5D20708F06FC0EF
:10241000C11536E5D30708F0AECF8C2F0E942513E7
:10242000C82FD0E0DC2FCC27CC27DF71D062A9CF1A
:10243000C1154AE5D40708F45FC0CE019056811556
:10244000904208F098CF8D2F8F710E94251390E055
:10245000982F882788279F719C012C2BE901E6CFB4
:10246000D0658FCF805C91090E948D11EC0189CFDE
:10247000EC01D06C86CFDF70D06A83CFE4E0969514
:102480008795EA95E1F783702C2F26952695237082
:1024900040E2249F90011124382B8C2F8370C1E0DF
:1024A000D0E002C0CC0FDD1F8A95E2F7C22BD32B00
:1024B000DC6867CFDC2FCC27C16FD06A62CF837016
:1024C000992721E030E002C0220F331F8A95E2F7FE
:1024D000C695C69590E2C99FE0011124C22BD32B6B
:1024E000DA684FCFD82FCC27C46FD06A4ACFDC2F01
:1024F000CC27C06FD06A45CF8C2F8F700E942513D8
:1025000034E0D695C7953A95E1F7CF709C2FEC0152
:10251000D06937CF0E94101E0C9495118238910516
:10252000B1F1B0F48133910509F475C048F48932F2
:10253000910509F469C08A32910509F473C00895C0
:102540008533910509F459C08933910501F1089546
:10255000833E9105A9F138F4803E9105F9F0823E61
:10256000910549F10895863E9105A9F1873E9105AF
:10257000C9F1843E910519F52091870321FF1FC001
:102580008091860384FD14C087EE90E00895209129
:1025900086032370A1F080EE90E0089520918603D9
:1025A00020FD47C03091870330FF09C024FF44C09D
:1025B00090E080E004C02091860322FDF7CF0895CB
:1025C0002091860322FD3BC03091870330FDE3CF8D
:1025D00024FFF5CFEDCF2091860323FFF0CF24FD1C
:1025E000E7CFD2CF2091860323FD2CC03091870303
:1025F00031FFEECF84EE90E008952091860325FF11
:10260000DECF89E290E008952091860325FFD7CFA1
:1026100085E390E008952091860326FFD0CF8AE2DB
:1026200090E008952091860326FFC9CF81E390E0D2
:10263000089589E390E0089583EE90E0089582EE96
:1026400090E0089586EE90E008959091860392FFC1
:1026500006C0282F28712830F9F4877F846093FF03
:1026600006C0282F28712831F1F4877E84612091DB
:10267000870320FF06C0382F38713830D9F4877FA0
:10268000816021FF06C0282F28712831D1F4877E70
:10269000816194FD877E0895282F24712430F9F6F6
:1026A0008B7F8860DCCF282F2471243101F78B7E4B
:1026B0008861DDCF382F3171313019F78E7F886016
:1026C000E0CF282F2171213121F78E7E8861E1CF63
:1026D00080E008950C94FA0F0E942F142FEF86E7E4
:1026E00091E0215080409040E1F700C000000E943E
:1026F0002F1480E00E94A51380FF04C00E946A137B
:102700000C941B2B08950C946C130E9400108111E3
:1027100002C00E94A4100E940B108093D4010E945A
:10272000131090938703809386030E9483130E9463
:102730000F100E942209809151010C9435090895CF
:102740000C949F1308950C94A213E82FF0E0E45723
:10275000FC4F8081089508951F93CF93DF9326E265
:1027600031E0C1E0D0E0D90150E040E08D918F3FF1
:1027700091F0E82FE295EF70F0E011A18F70BE01AB
:1027800001C0660F8A95EAF7962F9095912391A341
:1027900082A1862B82A34F5F5F4F4430510531F7F2
:1027A0002C5F3F4F81E026333807E9F6DF91CF9168
:1027B0001F910895EF92FF921F93CF93DF93DC0157
:1027C00070E0FB01EE0FFF1FEE0FFF1FEA5DFE4FF3
:1027D00050E040E080E0EE24E394F12C91919F3FA3
:1027E000B1F0292F22952F7030E0E90128A130E0C7
:1027F0009F7002C0359527959A95E2F720FD15C088
:102800009701042E01C0220F0A94EAF7822B4F5F32
:102810005F4F4430510511F7A60FB71F8C93DF911E
:10282000CF911F91FF90EF90089520E0EFCF0E948D
:10283000AC13A8E8B3E01C92ECE8F3E01082119628
:102840001C921197118212961C9212971282139663
:102850001C92138284E00E9471140C9481031F93D4
:10286000CF93DF9300D000D0CDB7DEB719821A82A4
:102870001B821C8210E0612FCE0101960E94DA13A8
:102880001F5F1430C1F744E050E0BE016F5F7F4F1F
:1028900088E893E00E94B43211E0009709F410E058
:1028A000892B61F089819A81AB81BC8180938803F7
:1028B00090938903A0938A03B0938B03212F44E064
:1028C0006CE873E088E893E00E9472140E9487032A
:1028D000812F0F900F900F900F90DF91CF911F914C
:1028E00008950895FF920F931F93CF93DF93F82ECF
:1028F000092F162FD72FC42F222349F081E0809370
:10290000D7010E94D02A9093D6018093D50180915F
:10291000D7018823A1F08091D5019091D6010E9422
:10292000E82A059760F0EF2DF02FA12FBD2FCE0FD5
:10293000DF2FD11DEC17FD0741F41092D701DF9175
:10294000CF911F910F91FF90089581918D93F2CFB8
:102950000E944D2A0E94A22C0E94BB2C0E94CD2CCA
:102960000E94E010FBCF8091DE016091EA0370913C
:10297000EB0380FF16C020910701269FC001279F0F
:10298000900D1124BC017695679576956795603812
:10299000710508F043C06115710509F441C0862F27
:1029A000089581FF0BC020910701269FC001279F3A
:1029B000900D1124BC0176956795E9CF82FF09C07F
:1029C000809107019B01829FB001839F700D1124AC
:1029D000DECF2091DD012223D1F29091060180917A
:1029E0000701482F50E0291748F0CB01849FB00120
:1029F000859F700D949F700D1124C9CF289F900161
:102A00001124269FA001279F500D369F500D1124A1
:102A1000692F70E0CA010E947632B9CF8FE708951E
:102A200081E008958091DE0180FF0CC06091030178
:102A300070E075956795759567956115710549F114
:102A4000862F089581FF06C06091030170E075959F
:102A50006795F3CF6091030182FD0BC09091DC017B
:102A60009923A1F06091020180910301961738F03B
:102A7000682F70E06038710500F38FE70895899F33
:102A8000C001112470E00E948A32F4CF61E070E04E
:102A9000D7CF81E00895803F31F40E94B31481952F
:102AA0008093E2010895813F19F40E94B314F8CF96
:102AB000823F31F40E94B31481958093E10108951F
:102AC000833F19F40E94B314F8CF893F29F40E9480
:102AD00012158093E30108958A3F21F40E94121594
:102AE0008195F7CF8B3F31F40E9412158195809329
:102AF000E40108958C3F19F40E941215F8CF843F29
:102B000031F48091E00181608093E0010895853F78
:102B100021F48091E0018260F7CF863F21F480911B
:102B2000E0018460F1CF873F21F48091E00188606B
:102B3000EBCF883F21F48091E0018061E5CF8D3FAC
:102B400031F48091DE0181608093DE0108958E3F33
:102B500021F48091DE018260F7CF8F3FB9F7809139
:102B6000DE018460F1CF9091E101803F59F48091C2
:102B7000E20187FF0DC01092E20191110BC010928B
:102B8000DD0108C0813F81F48091E20118169CF3B9
:102B9000992381F08091E3019091E401892B09F060
:102BA00064C01092DC010895823F49F497FFF0CF92
:102BB0001092E1018091E2018111ECCFE0CF833FDF
:102BC00019F41916ACF3E4CF2091E301893F29F4FD
:102BD0001216F4F61092E301DBCF8A3F19F427FFB7
:102BE000D7CFF8CF2091E4018B3F29F427FFD0CF36
:102BF0001092E401CDCF8C3F19F41216CCF3C8CF5C
:102C0000843F31F48091E0018E7F8093E001C0CF5A
:102C1000853F21F48091E0018D7FF7CF863F21F43D
:102C20008091E0018B7FF1CF873F21F48091E0011B
:102C3000877FEBCF883F21F48091E0018F7EE5CF45
:102C40008D3F31F48091DE018E7F8093DE01A0CF35
:102C50008E3F21F48091DE018D7FF7CF8F3F09F009
:102C600097CF8091DE018B7FF0CF08950E94D02A0C
:102C70009C019091E1018091E201982B21F0309329
:102C8000DB012093DA019091E3018091E401982B1C
:102C900021F03093D9012093D8018FED91E00C946D
:102CA0005729EF92FF920F931F93CF93DF9300D09A
:102CB00000D000D0CDB7DEB786E0EFEDF1E0DE0169
:102CC000119601900D928A95E1F7E090E101F09064
:102CD000E2010091E3011091E4011092E1011092F0
:102CE000E2011092E3011092E4018E2D8F2991F000
:102CF0008091DA019091DB010E94E82AAC01909169
:102D0000DD01992309F43FC080910801841715065D
:102D100008F447C0802F812B91F08091D8019091C9
:102D2000D9010E94E82AAC019091DC01992309F4B1
:102D300077C0809104018417150608F47FC0809144
:102D4000E1019091E201892B9091E301892B90910F
:102D5000E401892B11F00E94361686E0FE013196BF
:102D6000AFEDB1E001900D928A95E1F726960FB68E
:102D7000F894DEBF0FBECDBFDF91CF911F910F91B1
:102D8000FF90EF900895209109018AE0289F90011B
:102D900011242417350708F0BDCF9F5F9093DD0104
:102DA00002C09F3FD1F7EE2059F00E94B3149FEF6D
:102DB0001E140CF491E0899F802D11248093E10171
:102DC000FF2059F00E94B3149FEF1F140CF491E000
:102DD000899F802D11248093E2013091E1013323FA
:102DE00009F498CF2091E201222309F493CF45EB17
:102DF0003403C0011124992359F09093E10145EB6C
:102E0000240390011124332339F03093E20182CF5F
:102E100081E08093E101F3CF81E08093E2017ACFFA
:102E2000209105018AE0289F90011124241735077D
:102E300008F085CF9F5F9093DC0102C09F3FD1F7E0
:102E4000002359F00E9412159FEF10160CF491E028
:102E5000899F802D11248093E301112359F00E9452
:102E600012159FEF11160CF491E0899F802D11240B
:102E70008093E4013091E301332309F460CF209182
:102E8000E401222309F45BCF45EB3403C001112494
:102E9000992359F09093E30145EB24039001112409
:102EA000332339F03093E4014ACF81E08093E3018A
:102EB000F3CF81E08093E40142CF86E0EFEDF1E0D3
:102EC000DF011D928A95E9F71092DD011092DC0175
:102ED0001092DE01089583E290E00E94E132883290
:102EE00089F484E290E00E94E132853A59F485E267
:102EF00090E00E94E13291E0893009F090E0892F62
:102F00008170089580E0FCCFCF93C82F6FEF8111BF
:102F100068E283E290E00E94EF326FEFC11165EA50
:102F200084E290E00E94EF326FEFC11169E085E228
:102F300090E0CF910C94EF32089586E290E00E94E9
:102F4000E132682F70E090E080E0089586E290E042
:102F50000C94EF3280E00E94841760E070E0CB01B7
:102F60000E94A6170E94331D0E94831E81E00C94CC
:102F700084170E949C170E946B17811102C00C9449
:102F8000AA170895CF93FB01C281CC2309F19C01BC
:102F900022513F452031310520F582510E94931E78
:102FA000C0E08C2FCF91089581E00E94480943E052
:102FB00062E081E00E947803F3CF81E00E94530930
:102FC00043E062E081E00E947803EBCF82E0F6CF3D
:102FD0008031FFE59F0789F381319F45B9F3C1E057
:102FE000E0CF8031EFE59E07F9F281319F45C9F6C8
:102FF00082E0DBCF2FEFFC0120830895EF92FF9258
:103000000F931F93CF93DF93EC01062F88812091BC
:10301000E1023091E202232B79F08E3F09F057C094
:103020008981833020F08550833008F050C0602FB4
:10303000CE010E942D1B4BC08C3009F4A1C0D0F4EE
:10304000843009F484C060F4823009F44AC008F086
:1030500071C08130C9F1602FCE010E94FA1737C0CC
:10306000863009F48AC008F47DC08A30A0F78FEF5B
:1030700088832DC0803109F4A0C0D8F48E3009F4C3
:103080008BC008F481C080910A0190910B01892BBB
:10309000F1F06B8170E06D317105C8F489819A811E
:1030A000AE014C5F5F4F9827892798270E94581ED2
:1030B0000EC0823109F487C008F482C0833109F45C
:1030C00093C08E3F41F6B3CF198289E08A83602F87
:1030D000CE01DF91CF911F910F91FF90EF900C9453
:1030E000972B8981823071F0833079F0813009F03B
:1030F000B2CF0E94DC2A0E94A4326A837B838C8335
:103100009D83E5CF0E949D17F6CF80910A01909193
:103110000B01892BE1F27E0182E0E80EF11C10E048
:10312000812F0E94A513F70181937F011F5F143047
:10313000B9F7CDCF8981823009F08DCF6A817B814B
:103140008C819D810E94A4320E94A617C0CF4B8122
:103150006A8189810E94881C9827892798279D83E6
:103160008C83B5CF2C813D813227232732274B8199
:103170006A8189810E94AA1CAACF0E94331DA7CF11
:103180000E942C1E8983A3CF0E942E1E9827892778
:1031900098279A8389839BCF6B8170E06D3171058D
:1031A00008F095CF89819A81AE014C5F5F4F9827D7
:1031B000892798270E94311E8ACF0E94831E87CFBD
:1031C0000E94751CDFCF6B8170E06D31710508F0D6
:1031D0007ECF89819A81AE014C5F5F4F9827892706
:1031E00098270E94B81D73CF6B8170E06D31710517
:1031F00008F06DCF89819A81AE014C5F5F4F9827AF
:10320000892798270E94DD1D62CF8F929F92AF92EF
:10321000BF92CF92DF92EF92FF920F931F93CF93C3
:10322000DF93CDB7DEB72A970FB6F894DEBF0FBE97
:10323000CDBF0DE112E0F12CE12C83E8C82E8AE12C
:10324000D82E9DEAA92E9AE1B92E2AE8822E29E1EC
:10325000922EF801D182C082B382A28295828482AA
:10326000F58AE48ABE016F5F7F4F8E2D0E94E31CBA
:10327000892B29F489859A85F801938B828BFFEF3E
:10328000EF1AFF0A0A5E1F4F88E0E816F10409F7FB
:103290002A960FB6F894DEBF0FBECDBFDF91CF9157
:1032A0001F910F91FF90EF90DF90CF90BF90AF9064
:1032B0009F908F900895CF93DF9300D000D00F920E
:1032C000CDB7DEB79093E1038093E003811520E250
:1032D000920748F40F900F900F900F900F90DF918E
:1032E000CF910C94E3028EEF89838A831B820E9424
:1032F000D02A8160782F9D838C8349815A816B818C
:103300008D810F900F900F900F900F90DF91CF91C4
:103310000C94FB040F931F93CF93DF938C01EB016D
:103320006DEC72E08C2F0E94E31C892BA1F480913C
:10333000000490910104019798F4DD27C952DD4FF4
:103340008881F80110821882833041F180F4813045
:1033500091F08230B9F0DF91CF911F910F910895D4
:10336000EFE9FFE03197F1F700C00000E4CF8430CF
:10337000D1F0853081F78091CD029091CE020097F7
:1033800051F306C08091CF029091D002009799F33B
:10339000DF91CF911F910F910C945B198091D10215
:1033A0009091D202F3CF8091D3029091D4020097F2
:1033B00079F72091CD023091CE028091CF02909189
:1033C000D00221153105D9F2009711F7C901E0CFDC
:1033D000CF93DF9300D000D00F92CDB7DEB790939C
:1033E000E1038093E003811520E2920748F40F90F7
:1033F0000F900F900F900F90DF91CF910C94CC0213
:103400008EEF89838A8381E08B830E94D02A81603A
:10341000782F9D838C8349815A816B818D810F9098
:103420000F900F900F900F90DF91CF910C94FB04B1
:10343000CF92DF92EF92FF921F93CF93DF93CDB79E
:10344000DEB72A970FB6F894DEBF0FBECDBFE0E916
:10345000F3E080E5DF011D928A95E9F7E5EEF1E002
:1034600088E3DF011D928A95E9F780E9C82E83E0A1
:10347000D82E7F0110E0F701D182C082BE016F5FBC
:103480007F4F812F0E940B1D892B79F488E0FE016C
:103490003196D60101900D928A95E1F789859A853A
:1034A000D70113969C938E931297BAE0CB0ED11C42
:1034B000E7E0EE0EF11C1F5F1830E9F62A960FB612
:1034C000F894DEBF0FBECDBFDF91CF911F91FF906B
:1034D000EF90DF90CF900895CF93DF93EC010E949F
:1034E000E8198091000490910104019728F4CE011D
:1034F000DF91CF910C945B19EFE9FFE03197F1F781
:1035000000C00000F2CF0F931F93CF93DF938C0185
:10351000862F6DEC72E00E94E31C892BC9F4C091E8
:10352000CD02D091CE02209799F0F80180818330AE
:1035300069F4CE010E946C1ACE010E946C1ACE0171
:10354000DF91CF911F910F910C946C1A8430B8F7D2
:10355000DF91CF911F910F9108950F931F93CF93F8
:10356000DF938C01EB016DEC72E08C2F0E94E31C69
:10357000892B09F064C0FE01FF27D8018C91E95224
:10358000FD4F8130D9F419969C911997992311F028
:1035900080830CC01A969C919923D1F382E080839A
:1035A0008091CF029091D0020097D9F48091CD0202
:1035B0009091CE02009709F442C013C08230E9F521
:1035C00019968C91199781112DC01A968C918111A1
:1035D0000EC083E080838091D1029091D202009747
:1035E00019F1DF91CF911F910F910C94E81984E0AC
:1035F00080838091D3029091D402009791F78091BB
:10360000CD029091CE020097F9F00E946C1A809141
:10361000CF029091D002009721F78091CD02909136
:10362000CE02DFCF85E080838091CD029091CE02E3
:10363000009729F00E946C1AF0CF86E08083DF911A
:10364000CF911F910F9108958091CF029091D00258
:10365000B1CF0E9405190C94181ACF92DF92FF92F5
:103660000F931F93CF93DF93CDB7DEB72A970FB693
:10367000F894DEBF0FBECDBF8C01603269F5DC016E
:103680001196EC911197EE3038F5F0E0E55BFC4CCB
:103690000C949E3288E0EEE1F1E0DE01119601909B
:1036A0000D928A95E1F780E2F80111928A95E9F787
:1036B00084E0D8018C9311961C92119712961C925B
:1036C000129713961C92139788E0FE013196149678
:1036D00001900D928A95E1F72A960FB6F894DEBF15
:1036E0000FBECDBFDF91CF911F910F91FF90DF9063
:1036F000CF90089584EEF8018083118212821382A4
:10370000EBCF13968C911397682F70E0762F662776
:1037100012968C91860F972F911D092E000CAA0BE3
:10372000BB0B45E0880F991FAA1FBB1F4A95D1F715
:10373000AC01BD01405E5F4F6F4F7F4F4817590787
:103740006A077B0748F2843E9105A105B10520F682
:10375000453E51056105710520F044EE50E060E002
:1037600070E0481B590BBC0164587E4FC8010E9491
:10377000AB32B2CF40E250E06FEF70E00E94CA324D
:1037800080910A01F80180838091E1028183A4CFB6
:1037900081E090E09093E2028093E10282E390E086
:1037A0009093E0028093DF020E94D02A95CF80910F
:1037B0000A018C938091E10211968C93119780916C
:1037C000DF0212968C9388CF40E250E0BC01FC01EE
:1037D000828193810E94D61F7FCFBC016F5F7F4F94
:1037E0004FE150E012968D919C910E940820F801C3
:1037F000808372CFBC016C5F7F4F4CE150E012962A
:103800008D919C910E943020F2CF0E94951F64CF31
:1038100012968C911297823009F442C0E8F4882302
:10382000A9F1813009F058CFF80183812AE0F22E06
:103830009E012F5F3F4F6901D901EF2D1D92EA953F
:10384000E9F7B9010E94E31CD8018D93F6010190BC
:103850000D92FA94E1F740CF8330B9F1843009F04A
:103860003BCF13968C919AE0F8013496DE011196C5
:1038700001900D929A95E1F7BE016F5F7F4F0E9414
:103880001F1DF80180830E94181A26CF80E2F801DC
:1038900011928A95E9F788E08C9311968C931CCF4E
:1038A00013968C919AE0F8013496DE0111960190FE
:1038B0000D929A95E1F7BE016F5F7F4F0E94F71C52
:1038C000F80180830E94051907CF13968C919AE026
:1038D000F92EFE0131966F01DF01EF2D1D92EA9561
:1038E000E9F7B6010E940B1DAFCF84E0089528E0F0
:1038F000629FB001112450E0440F551F640F751FE3
:1039000020E2829FC0011124860F971F8796089599
:103910000F931F93CF93DF938430C8F46430B8F4CF
:103920004430A8F40E94771C8C010E94E132C82F19
:10393000D0E0DC2FCC27C80101960E94E1329E0125
:10394000282BC901DF91CF911F910F91089590E02D
:1039500080E0F8CF0F931F93CF93DF93E90184307A
:10396000E0F46430D0F44430C0F421153C4531F427
:1039700020910A0130910B01232B79F00E94771CD2
:103980008C016D2F0E94EF326C2FC8010196DF91E0
:10399000CF911F910F910C94EF32DF91CF911F9136
:1039A0000F9108958232910520F489559F4F0C9410
:1039B000E13280E008958232910520F489559F4FCD
:1039C0000C94EF3208959B01883070F49AE0899F3F
:1039D000B001112467537F4F4AE050E0C9010E94B3
:1039E000D13290E080E008958FEF9FEF08959B0122
:1039F000883070F49AE0899FB001112467537F4F9B
:103A00004AE050E0C9010E94133390E080E008953D
:103A10008FEF9FEF08959B01883070F49AE0899FA3
:103A2000B0011124675E7E4F4AE050E0C9010E9458
:103A3000D13290E080E008958FEF9FEF08959B01D1
:103A4000883070F49AE0899FB0011124675E7E4F40
:103A50004AE050E0C9010E94133390E080E00895ED
:103A60008FEF9FEF08957F928F929F92AF92BF92B8
:103A7000CF92DF92EF92FF920F931F93CF93DF933A
:103A8000CDB7DEB764970FB6F894DEBF0FBECDBFDB
:103A9000A0900A01B0900B0181E090E090930B019F
:103AA00080930A018CEAC82E80E0D82E00E07601CF
:103AB00010E015C0F40125913491472D612F802F1E
:103AC0000E94AA1C82E0880E911C739494E07912E3
:103AD000F1CFE8E0EE0EF11C1F5F143019F0470142
:103AE000712CE8CF0F5FF0E2CF0ED11C0430F9F655
:103AF0000E94951F1C861B861E861D86188A1F869F
:103B00001A8A198A88EC90E09C8B8B8B10E0BE019E
:103B1000655F7F4F812F0E94F71C1F5F1830B9F738
:103B2000CE0101967C018AE0F70111928A95E9F7AE
:103B300010E0B701812F0E941F1D1F5F1830C9F7C9
:103B4000B0920B01A0920A0164960FB6F894DEBF02
:103B50000FBECDBFDF91CF911F910F91FF90EF90DE
:103B6000DF90CF90BF90AF909F908F907F900895FF
:103B7000EF92FF920F931F93CF93DF93EC018A0193
:103B80007C01E60EF71ECE018796CE15DF0539F4CF
:103B9000DF91CF911F910F91FF90EF900895C03862
:103BA000D10540F40E94E132F80180830F5F1F4F7E
:103BB0002196E9CFF8011082F9CFCF92DF92EF92F0
:103BC000FF920F931F93CF93DF938C016A0180388C
:103BD000910580F480E890E0801B910B8617970791
:103BE00048F07801E60EF71EE801CE018796CE1563
:103BF000DF0549F4DF91CF911F910F91FF90EF9076
:103C0000DF90CF900895C038D10540F4FE01E01B4D
:103C1000F10BEC0DFD1D60810E94EF322196E5CF86
:103C2000462F2091E1023091E202232B91F47E3F56
:103C300039F46E3F71F48091E0039091E1030895AF
:103C4000843038F4743028F4643018F4672F0C94FE
:103C5000881C90E080E0089580E1089587E992E073
:103C60000895EF92FF920F931F93CF93DF93EC0190
:103C70008A017C01E60EF71ECE0187599E4FCE15B4
:103C8000DF0539F4DF91CF911F910F91FF90EF90F5
:103C90000895C73922E0D20740F40E94E132F801CA
:103CA00080830F5F1F4F2196E7CFF8011082F9CF75
:103CB000CF92DF92EF92FF920F931F93CF93DF93F8
:103CC0007C016A018C01060F171FEC01CE01875998
:103CD0009E4FC017D10749F4DF91CF911F910F91EB
:103CE000FF90EF90DF90CF900895C73922E0D20780
:103CF00040F4FE01EE19FF09EC0DFD1D60810E94EC
:103D0000EF322196E3CFCF93DF93C9E6D1E060E0B5
:103D1000CE010E94EF322196C11584E0D807B9F791
:103D2000DF91CF910895BF92CF92DF92EF92FF92F1
:103D30000F931F93CF93DF9300D000D0CDB7DEB7A2
:103D4000F82E2FE0281740F08FEF93E00E94E13229
:103D500009E611E08823D1F00F900F900F900F909B
:103D6000DF91CF911F910F91FF90EF90DF90CF9057
:103D7000BF900895011544E0140771F3C8010E9433
:103D8000E132811101C0FA940F5F1F4FF110F2CFA1
:103D900019821A821B821C82BB24BA9478015FEFBD
:103DA000E51AF50AC8010E94E13289831A82882344
:103DB00099F2813009F047C0680182E0C80ED11C39
:103DC000C7010E94E132E82E8A83882329F2C601C6
:103DD0000E94E132F82E8FEF8E0D833068F4680177
:103DE000E3E0CE0ED11CFB82FF2021F0CE01019634
:103DF0000E94DE048601D2CFF4E0EF12FBCF68010F
:103E000024E0C20ED11CC80103960E94E132FF20BB
:103E100009F4A2CF882309F49FCF8150990BB89E53
:103E20009001B99E300D11244F2D4150550BCA0100
:103E3000820F931F0197F0F2EFE9FFE03197F1F75E
:103E400000C00000F7CFCE0101960E94DE0467019A
:103E5000D1CFE2EEF3E0848195812AE030E0B90130
:103E60000E947632609309018681809308018285E1
:103E70008093070184858093060186859785B90123
:103E80000E947632609305018089809304018289C3
:103E90008093030184898093020108958091E20355
:103EA0009091E3030C945C280F931F93CF93DF93BF
:103EB00002EE13E0D0E0C0E0CE010E94D21CF80177
:103EC00061918F01861719F0CE010E94DB1C2196AB
:103ED000C232D10589F7DF91CF911F910F910895DB
:103EE0000F931F93CF93DF9302EE13E0D0E0C0E077
:103EF000CE010E94D21CF80181938F012196C2321B
:103F0000D105B1F7C6E6D2E0FE0185919491009704
:103F100011F0FC0109952896F2E0CE3FDF07A1F7EA
:103F2000DF91CF911F910F910895E2EEF3E0128E91
:103F3000138E8FEA90E09183808385E0848F88E8F8
:103F400093E1938382834CE251E05583448322E3DF
:103F500030E03783268385E090E0918780878AE090
:103F600090E09387828764E170E075876487578764
:103F7000468744E650E0518B408B48E050E0538B3D
:103F8000428B48E250E0558B448B378B268B28ECD4
:103F900030E0318F208F158E978F868F80E590E0EF
:103FA00091A380A30E94541F0C94701FEF92FF9264
:103FB0000F931F93CF93DF937C01EB018A016FEF87
:103FC00070E0CE010E94CA3220E632E0A8EFB2E0F3
:103FD00090E080E0AC014E5F5F4F0417150788F05A
:103FE000F90165917491E616F70630F48C0F9D1F68
:103FF000FC0171836083CA01285F3F4FA217B3079A
:1040000049F7DF91CF911F910F91FF90EF900895A5
:10401000DC01CB0120E632E0F90165917491A6172D
:10402000B70749F0285F3F4F62E0283F3607A1F706
:104030008FEF9FEF0895B9016E5F7F4FFB01A59150
:10404000B4914A175B07A0F3FB0145915491F90124
:104050003496659174910E94C13290E080E0089599
:10406000CF93DF93C0E6D2E0FE0125913491821711
:10407000930741F0289622E0C83FD207A9F78FEFB7
:104080009FEF1DC0CE010296FC012591349142178D
:104090005307A8F3FC0145915491FE013496859194
:1040A00094910E94C1320E94541FFE013696859160
:1040B0009491009711F0FC01099590E080E0DF9168
:1040C000CF9108958091FA039091FB030895809118
:1040D000FF03817008958091FF0386958170089594
:1040E0008091FF0382FB882780F908958091FF0368
:1040F00083FB882780F908958091F8039091F90354
:104100000895AF92BF92CF92DF92EF92FF920F93FA
:104110001F93CF93DF937C015B01C42FD22FFC014F
:1041200082818823F9F04093E5020E94D02A90937F
:10413000E4028093E30280E28C0F883008F061C0D3
:10414000C77081E001C0880FCA95EAF7DF91CF916F
:104150001F910F91FF90EF90DF90CF90BF90AF90A5
:104160000C94ED051091E502141340C08091E30218
:104170009091E4020E94E82A6C01B701C5010E94F7
:104180006220C816D90690F5C0E2CD0F1D17B9F010
:1041900080E2810F883040F4177081E001C0880F01
:1041A0001A95EAF70E94F405C83048F481E09D2F83
:1041B000977001C0880F9A95EAF70E94ED05802F4D
:1041C0000E94E105C830E8F4D77081E001C0880F93
:1041D000DA95EAF7DF91CF911F910F91FF90EF9061
:1041E000DF90CF90BF90AF900C94F40580E28C0FDD
:1041F000883038F4C77081E001C0880FCA95EAF7AB
:10420000E9CFDF91CF911F910F91FF90EF90DF9059
:10421000CF90BF90AF9008950F939C01CB01233FA7
:104220004CE5340759F1A8F4283DFCE53F0701F1BE
:10423000293D4CE53407D1F1273D3C4591F406E298
:1042400021EE41EE67ED7CE50E94812080E00F9138
:104250000895253FFCE53F07E9F0B0F0263F3C45D7
:10426000F9F0FC018281882339F11092E502EFCF49
:1042700007E225EE45EE68ED7CE5E6CF06E221EEAD
:1042800040EE63EF7CE5E0CF07E225EE44EE64EF1D
:104290007CE5DACF06E221EE42EE65EF7CE5D4CF95
:1042A00007E225EE46EE66EF7CE5CECF08E221E0A0
:1042B00045EE69ED7CE5C8CF81E0C9CFCF93DF93B0
:1042C000EC01FB018281882309F419C1C230FCE5AD
:1042D000DF07C0F1C6319CE5D90730F09E012A5FA7
:1042E0003C452930310570F50E94131090938703E7
:1042F00080938603C031ECE5DE0709F4CFC008F0F7
:104300005BC0C8308CE5D80709F4B6C088F5C43066
:10431000ECE5DE0709F4A8C0C0F4C2308CE5D8078C
:1043200009F49CC0809186038260C330DC4509F4A7
:1043300098C080918603909187030E9421100E946B
:10434000170680E0DF91CF91089580918603806108
:10435000C630ECE5DE0709F484C0809186038860EE
:10436000C730DC4508F47DC080918603806279C047
:10437000CC308CE5D80709F489C070F480918603AD
:104380008C60CA30ECE5DE0709F46BC008F478C035
:10439000809186038E7F65C0CE308CE5D80709F406
:1043A00079C0809186038B7FCF30DC4508F459C0FB
:1043B000809186038F7E55C0CB3FECE5DE0709F484
:1043C00057C030F5C3318CE5D80709F46FC078F4D5
:1043D000C131ECE5DE0709F465C0C231DC4509F006
:1043E000A8CF0E941706809186038F773AC0C53107
:1043F0008CE5D80709F462C008F476C08091870381
:104400008160CA3FDC4509F094CF8093870391CF48
:10441000CF3FFCE5DF0709F44DC088F480918703A6
:104420008D7FCD3F9CE5D90781F3809187038E7FF7
:10443000CE3FDC4550F3809187038360E6CFC130E7
:10444000FDE5DF0709F459C008F444C080E0C2303C
:10445000DD4509F06ECF0E94A6106BCF80918603D8
:1044600081608093860365CF809186038460F9CF55
:10447000809187038260C9CF809186038064F1CFE9
:104480000E941706809186038068EBCF8091860397
:104490008D7FE7CF80918603877FE3CF809186036E
:1044A0008F7DDFCF809186038F7BDBCF809186036A
:1044B000837FD7CF809187038C7FA7CF809186039E
:1044C00082FB992790F921E0922790FB82F990FBDB
:1044D00083F9C7CF80918703982F909591708E7F35
:1044E000892B90FB81F991CF0E941706909186034A
:1044F000892F97FB87F98058B4CF81E0ACCF81E05A
:1045000021CFCF93DF93EB0186319C4509F03BC06F
:104510000E94FE0E982F9A7A2091FC0320FF04C07F
:10452000382F347409F090E021FF04C0382F317126
:1045300009F090E022FF04C0382F387809F090E0AD
:1045400023FF03C0827209F090E08A81882389F0FA
:1045500081E0911101C080E08093E60289E291112F
:1045600085E30E94810E0E94760F80E0DF91CF915B
:1045700008958091E602811104C089E20E94880EAC
:10458000F2CF85E3FBCF81E0F1CF08950F931F9326
:10459000CF93DF9380915203E091E7021CE08111F9
:1045A0001AC0DF91CF911F910F91089501E00E0F76
:1045B0000093E702CE2FD0E0E19FF0011124EE50EE
:1045C000FD4F83819481892B29F0808191818923FA
:1045D0008F3FE9F4E02F80915203E81738F31092EF
:1045E00052031092E702DDCF18968D919C918F3F78
:1045F0009807D1F061E00E94C5221C9FF0011D9F29
:10460000F00D1124EE50FD4F14821382E3CF1C9F56
:10461000D0011D9FB00D1124AE50BD4F16968D9147
:104620009C911797892B01F320813181428153811D
:1046300064817581868197810E94E10DDECF1092A1
:1046400054031092530320910D0130910E01E5EEB9
:10465000F1E090E080E02817390709F408954581DA
:10466000411102C01482168201963796F4CFDC0104
:104670006091F0028091F102962F891301C0089594
:10468000292F30E0F901EE0FFF1FE851FD4F408167
:1046900051814A175B07A1F487E08A9FA0018B9F95
:1046A000500D11244B515E4F81E0FA018483961323
:1046B000E6CF2F5F3F4F237033272093F0020895FA
:1046C0002F5F3F4F922F9370D8CF6F927F929F9220
:1046D000AF92BF92CF92DF92EF92FF920F931F9310
:1046E000CF93DF93DB0114962C911497211169C0AD
:1046F000A0905203E2EFF2E030E020E0B12C66241B
:104700006394712C2A1508F047C0C284D384ED90BD
:10471000FC9011976FEF7FEF912C492D50E08A01AB
:10472000000F111F0E0D1F1DE801088119810115D1
:10473000110531F0C016D10609F4BA019394EDCFFA
:104740006F3F7607D1F1E30102C0CC0FDD1F6A9500
:10475000E2F7BC2AB30102C0660F771F9A94E2F712
:10476000AB0141505109B416150629F512964D9129
:104770005C9113976CE0629FF001639FF00D112430
:10478000EE50FD4F578346832EEF20832183918780
:10479000808721E015962C93DF91CF911F910F9187
:1047A000FF90EF90DF90CF90BF90AF909F907F9061
:1047B0006F900C943723148213822F5F3F4F3C96E7
:1047C000A1CFDF91CF911F910F91FF90EF90DF90DC
:1047D000CF90BF90AF909F907F906F9008951F9360
:1047E000CF93DF93C091F00217E08091F1028C1318
:1047F00007C00E94C622DF91CF911F910C941F2306
:10480000D0E0FE01EE0FFF1FE851FD4F8081918146
:10481000189FB001199F700D11246B517E4F0E949B
:1048200065232196C370E1CF0F931F93CF93DF933E
:10483000DC012D913C91119740E090E080E0E82F61
:10484000F0E0EE0FFF1FE20FF31FC081D181209730
:10485000B9F0FB010081118190E005C0CE17DF07A0
:1048600009F441E09F5FE92FF0E0EE0FFF1FE00F3A
:10487000F11F0190F081E02D309781F78F5FDFCF3E
:10488000442349F0981708F4DB01CD01DF91CF9163
:104890001F910F910895B0E0A0E0F7CF80910C0137
:1048A000882341F18091550390915603009711F1AF
:1048B0000E94E82A209153033091540328173907A6
:1048C000C8F49091F0028091F102981759F00E947B
:1048D000EF23109254031092530310925603109238
:1048E000550308950E94C622109256031092550354
:1048F0000C941F23089510925603109255031092A2
:104900000C018091F1028093F0020E941F230C940D
:10491000C62280910C0181110C947B2481E080934C
:104920000C0108952F923F924F925F926F927F9267
:104930008F929F92AF92BF92CF92DF92EF92FF92AF
:104940000F931F93CF93DF93CDB7DEB72A970FB6A0
:10495000F894DEBF0FBECDBF6C012B01FB011281AD
:10496000873FFCE59F07F9F4112321F181E0809353
:104970000C01812F2A960FB6F894DEBF0FBECDBF73
:10498000DF91CF911F910F91FF90EF90DF90CF902B
:10499000BF90AF909F908F907F906F905F904F905F
:1049A0003F902F900895883F2CE5920709F04DC065
:1049B000111148C005EE11E0F12CE12C1986AA2452
:1049C000A394B12C80910D0190910E01E816F90687
:1049D00008F445C0F2018281882309F466C1F98593
:1049E000FF2309F462C10E94D02A9093560380935A
:1049F000550380915203883008F591E0980F909309
:104A0000520398E0F201DE01119601900D929A9501
:104A1000E1F72CE0829FC00111248E509D4F28E0C9
:104A2000FE013196DC0101900D922A95E1F72FEFFE
:104A30003FEFFC0131872087D386C28611E0F985DC
:104A40001F2797CF0E947B2494CF893F9C4509F074
:104A5000B1CF112309F4AECF0E9489248ACFF80187
:104A60002081318166246A94762C212C822D90E05D
:104A7000FC01EE0FFF1FE20FF31F40815181411532
:104A8000510531F0C416D50609F43C012394EECF4C
:104A9000312CFFEF6F167F0609F448C0F8014481FE
:104AA00030900C01832D411180E0F82FF1703F2EE2
:104AB000F2018281882309F496C0332009F493C05F
:104AC000B801C7010E947C204C01F8018581811149
:104AD00013C0950101C0220F6A94EAF78681822BE8
:104AE000868380915303909154038815990520F48F
:104AF0009092540380925303C50102C0880F991FFE
:104B00002A94E2F70197F80126812817190671F413
:104B10008091550390915603009789F00E94E82AEE
:104B20008816990660F421E0F8012483F985F329B9
:104B3000F9872FEFE21AF20A095F1F4F43CF209047
:104B4000F0023091F1023A8790E080E0EA852E127F
:104B500015C08017910751F3822C912CF401EE0FB0
:104B6000FF1FE851FD4FF182E082FFEF8F1A9F0A8D
:104B700023E0822299248092F102D8CF822C912CBA
:104B8000F401EE0FFF1FE851FD4F2081318147E016
:104B9000429FC001439F900D1124FC01EB51FE4F39
:104BA0003F01B801CF010E9414240097A9F021E031
:104BB000FC0124838017910709F4B8CF2091F002FB
:104BC00022120AC06816790639F494012F5F3F4F0C
:104BD000237033272093F0023FEF831A930A482D66
:104BE0004370242EB3CFF8019580868190E0911018
:104BF0001EC0950102C0220F331F2A94E2F72150F4
:104C000031092817390731F4442309F44CC0C7018E
:104C10000E943723C50101C0880F6A94EAF7982FD4
:104C20009095F801868189238683392C7FCF9C015A
:104C3000062C02C0359527950A94E2F7A901417028
:104C40005527BC016150710986239723892B39F5BB
:104C5000452B29F182819381892BE1F01B821C82F3
:104C60001D821E82FEEFF983FA830E94D02A8160A2
:104C7000582F9D838C83F801828193818F8398873D
:104C800029813A814B816D817E810E94E10DF8017D
:104C90001582C0CF60E0C7010E94C522F8CFF22F75
:104CA000F1709F2EB7CF932CB5CF9091F0028091E9
:104CB000F102981719F00E94EF23C0CE0E94C6227D
:104CC00010925603109255030E941F23B7CECF9324
:104CD000DF93EC0181E0898B8F810E94010F888531
:104CE0000E94140F0E94760FEA81FB81309739F001
:104CF0006C897D89CE010696DF91CF910994DF9171
:104D0000CF910895EF92FF920F931F93CF93DF936C
:104D1000EC018A85811134C0EB80FC8087E5F81AAC
:104D200026E12E9DC0012F9D900D1124DC01A35E74
:104D3000BD4F1496ED91FC911597309731F0549634
:104D40006D917C918D5D9D4F099586E18E9D8001D1
:104D50008F9D100D1124035E1D4FF80187810E9465
:104D6000070FF80180850E941A0F0E94760F1882A3
:104D700019861B861E821D821092580310925703BB
:104D8000DF91CF911F910F91FF90EF900895DF92E7
:104D9000EF92FF920F931F93CF93DF937C01FB0160
:104DA0008281882391F080910F018F3F71F0CDE1D6
:104DB000D2E010E000E0DD24D39480910F01082EB2
:104DC000000C990B8017910744F4DF91CF911F914C
:104DD0000F91FF90EF90DF9008958E818823D9F096
:104DE00089859A858E159F0539F480915703909196
:104DF00058038E159F0579F0DF86FC86EB8689893E
:104E0000811103C0CE010E946726CE0106960E9442
:104E100082260E94210F0F5F1F4F6696CECFEF9222
:104E2000FF920F931F93CF93DF937C0197558F3F92
:104E3000910509F0D8F520910F01022E000C330BDB
:104E40002817390714F480930F01FB01228136E102
:104E5000389F8001399F100D1124E801C35EDD4F9A
:104E6000288B92818E81992349F1FA86E9868F5F9A
:104E70008E830E94D02A9E878D870E94340F8F8355
:104E80000E94FE0E88870E94110F9885892B8887C3
:104E9000E881F981309731F06C897D89C8018D5D99
:104EA0009D4F0995F0925803E092570381E0DF91FE
:104EB000CF911F910F91FF90EF9008958823B1F348
:104EC0008989882399F3C8018D5D9D4F0E948226B0
:104ED000EDCFCF92DF92EF92FF920F931F93CF937C
:104EE000DF9380910F0110E006E18F3FF1F5DF9134
:104EF000CF911F910F91FF90EF90DF90CF90089589
:104F00000E9DF0010F9DF00D1124E35EFD4FC28850
:104F1000D388C114D10439F470E060E081859285B2
:104F20000E9462206C010E9DE0010F9DD00D1124A6
:104F3000C35EDD4F8E818823B9F08D859E850E94EA
:104F4000E82AC816D90680F4109F700111248989B7
:104F5000811105C0C701835E9D4F0E946726C7016E
:104F60008D5D9D4F0E9482261F5FE12EF12C809166
:104F70000F01082E000C990B8E159F050CF6B7CF6C
:104F8000FF920F931F93CF93DF938C01EB01F42ECD
:104F90008091100182FF4AC08B7F80931001809125
:104FA0005B0390915C039B01281B390BC901209185
:104FB00011013091120182179307B8F480915903BF
:104FC0000E946805809110018D7F8093100180916F
:104FD000000490910104019710F5809159030E94FB
:104FE0009B0582E00E941A0F2BC082E00E94140FE2
:104FF000809159030E94680580911001826080931E
:1050000010018091FD0385FFE2CF86FDE0CFFF20F8
:10501000F1F2DF91CF911F910F91FF900895EFE989
:10502000FFE03197F1F700C00000D5CF802F0E943C
:105030009B058091590390915A038017910789F23B
:105040000E94760FD0935C03C0935B03E2CF809104
:10505000FD0380FF1DC08091100182FF19C00E94D6
:10506000D02A20915B0330915C03AC01421B530BAF
:105070009A0140911101509112012417350740F017
:1050800041E0BC018091590390915A030C94C027D0
:10509000089590911001892F8E7F90FF81608093F9
:1050A000100182E00C941A0F809110018E7F809382
:1050B000100182E00C941A0F909312018093110159
:1050C00008958832910538F48E319105E8F40497FB
:1050D000A0F480E008958933910558F48D3291054C
:1050E00010F48B97B1F78091FD0382FB882780F93C
:1050F00008C084369105B9F3ECCF8091FD03829509
:10510000817091E0892708958091FD0383FB8827B2
:1051100080F9F7CFCF92DF92EF92FF920F931F9318
:10512000CF938C016B018091FD0380FD0AC0C1E02B
:105130008C2FCF911F910F91FF90EF90DF90CF9028
:1051400008950E94D02A7C01F601C281CC2329F166
:105150008091100182FF06C040E0B70190E080E03E
:105160000E94C02782E00E941A0F0B31FCE51F0746
:1051700059F00C314CE5140769F00A315CE515076C
:1051800061F40E944928D4CF8091100181608093FE
:105190001001CECF0E945428CBCFB601C8010E9487
:1051A0006128882321F2F601C281CC2309F44EC084
:1051B0008091100180FFBBCF8091FD0381FF15C05E
:1051C0008091FD0385FD16C010935A030093590387
:1051D000F0925C03E0925B03809110018460809305
:1051E000100182E00E94DE0F2FC00E94FE0E882375
:1051F00039F39DCF20915B0330915C03A701421BE3
:10520000530B9A0186FD04C08091100181FDDCCF13
:10521000283C3105C8F68091590390915A0308172C
:10522000190791F68091100181FBCC27C0F981FD0F
:1052300004C0802F0E9468057BCF82E00E94140F7B
:10524000809159030E946805C0E072CF40E0B70129
:10525000C8010E94C0276CCF9093620380936103C2
:105260000895E0916103F0916203309721F001907D
:10527000F081E02D099480E00895E0916103F091C0
:105280006203309799F020911D01222359F020915B
:10529000860327FF07C0DC012C9111962C931197F0
:1052A00025E02C930280F381E02D09940895E0918C
:1052B0006103F0916203309739F022E0DC012C9316
:1052C0000480F581E02D0994089520915F033091C9
:1052D00060032817390771F09093600380935F0390
:1052E000E0916103F0916203309721F00680F7812D
:1052F000E02D0994089520915D0330915E032817F5
:10530000390771F090935E0380935D03E091610330
:10531000F0916203309721F00084F185E02D09942B
:105320000895FC01329680911D01882321F080911F
:1053300086039EE187FF96E080E0915008F408958F
:1053400021912223D1F38F5FF8CF662301F12091C1
:105350001D012223F1F02091860327FF1AC0462F5A
:105360004695469546954E3190F4677021E030E0C1
:1053700002C0220F331F6A95E2F7840F911DFC01D2
:10538000828190E02823392381E0232B69F480E097
:105390000895FC01329608962191261721F0E8170E
:1053A000F907D1F7F4CF81E008959C01FC01329612
:1053B0009FEF80E04191461751F09F3F19F4411152
:1053C00001C0982F8F5F8630A9F79F3F09F4089599
:1053D000290F311D97FD3A95F90162830895FC016B
:1053E000329608962191261303C0DF0111971C9273
:1053F000E817F907B9F70895E62FE695E695E695DB
:10540000EE3168F4E80FF92FF11D677021E030E00C
:1054100001C0220F6A95EAF78281822B8283089568
:10542000E62FE695E695E695EE3170F4E80FF92F54
:10543000F11D677021E030E001C0220F6A95EAF7A4
:105440002095828128232283089520911D01222303
:1054500029F02091860327FD0C94FC290C94D52972
:1054600020911D01222329F02091860327FD0C9411
:10547000102A0C94EF29FC01329680911D0188239B
:1054800051F08091860387FF06C08EE1DF011D92F7
:105490008A95E9F7089586E0F9CF0895089508956B
:1054A0000C944F2A80910C04843049F10E94502AB8
:1054B00080E00E94E9041092630388E190E020E418
:1054C0000FB6F894A895809360000FBE20936000FB
:1054D00083B7817F846083BF83B7816083BF789403
:1054E000889583B78E7F83BF0FB6F894A895809177
:1054F0006000886180936000109260000FBE089584
:105500000895CF930E944E2A0E942F140E94802A51
:10551000C0E08C2F0E94A513811105C0CF5FC4305D
:10552000C1F7CF91089581E0FCCF08950C94952A9E
:105530000E9417060E9431290E94E9040C94962AC1
:105540001F921FB61F9211248F939F93AF93BF9307
:1055500080916303811113C080910404909105042C
:10556000A0910604B09107044196A11DB11D80933E
:10557000040490930504A0930604B0930704BF911C
:10558000AF919F918F911F901FBE1F90189582E041
:1055900084BD93E095BD9AEF97BD80936E0008950A
:1055A0002FB7F8948091040490910504A09106040B
:1055B000B09107042FBF08952FB7F89460910404A9
:1055C0007091050480910604909107042FBF0895FF
:1055D0009C014FB7F8948091040490910504A09128
:1055E0000604B09107044FBF821B930B0895789473
:1055F0001F921FB61F9211248F939F93AF93BF9357
:105600008091040490910504A0910604B0910704D0
:105610000196A11DB11D8093040490930504A093ED
:105620000604B0930704BF91AF919F918F911F9093
:105630001FBE1F90189587E797E790930108809306
:10564000000888E19AE00FB6F894A895809360006E
:105650000FBE90936000FFCF909347018093460167
:10566000089580918403089508959C0184E08093B7
:10567000E9009FEF8091E800915085FD06C085ED1F
:105680008A95F1F700009111F5CF8091E80085FF30
:105690000CC050E040E066E070E0C9010E94962D29
:1056A0008091E8008E778093E8000895CF93DF9390
:1056B000EC0180911D018823B1F18091860387FF61
:1056C00032C060E284E08093E9008FEF9091E800BF
:1056D000815095FD06C095ED9A95F1F70000811176
:1056E000F5CF8091E80085FF1BC080911D0170E01F
:1056F00050E040E0811104C050E040E068E070E01C
:10570000CE010E94962D8091E8008E778093E8006C
:1057100080E2FE01A4E6B3E001900D928A95E1F7E4
:10572000DF91CF91089568E081E0CDCF0895CF93C8
:10573000FC01603221F580910C04843001F5C091A8
:10574000E900CF702091EC00922F917020FD90E83D
:10575000C92B82E08093E9008091E80080FF0CC0B3
:1057600050E040E060E270E0CF010E94962D809111
:10577000E8008E778093E800CF70C093E900CF9166
:10578000089580910B04811109C00E94752F0E9419
:10579000D22F8091E20084608093E20008951092FD
:1057A0000B04089508950895089542E061EC81E0A6
:1057B0000E94F12E42E261EC84E00E94F12E42E26E
:1057C00061EC82E00E94F12E42E260EC83E00C94F6
:1057D000F12E80910E04833009F461C030F48130E1
:1057E000D1F1823009F49DC008958A3009F489C04E
:1057F0008B3009F46FC0893009F050C080910D04DE
:10580000813209F04BC080911104909112040097ED
:1058100019F0029709F042C08091E800877F8093D9
:10582000E8008091E80082FF35C09091F3008091FC
:10583000F200029729F48091F1008B7F813021F4EE
:105840008091F100809384038091E8008B778093AE
:10585000E8000C94252F80910D04813AF9F4809191
:10586000E800877F8093E8008091110490911204F2
:10587000892B61F460E284E693E070E00E94342EAC
:105880008091E8008B778093E800089560E090E0D5
:1058900080E0F3CF80910C048111C3CF08958091F3
:1058A0000D04813AD9F78091110490911204892B4B
:1058B000A9F78091E800877F8093E8008091E80055
:1058C00080FFFCCF80911D018093F1008091E80062
:1058D0008E77BDCF80910D04813201F78091110444
:1058E00090911204892BD1F68091E800877F8093F4
:1058F000E8000E94252F80910F0480931D010C94D5
:10590000170680910D04813249F68091E800877F67
:105910008093E8000E94252F8091100480938503D6
:10592000089580910D04813A09F0B8CF8091E80084
:10593000877F8093E8008091E80080FFFCCF809112
:105940008503C2CF84B7877F84BF0FB6F894A8952C
:1059500080916000886180936000109260000FBEAB
:1059600080E890E00FB6F894809361009093610016
:105970000FBE0C94CC100E94752F0E94D22FE2EE25
:10598000F0E080818460808378940E945B320E9482
:10599000E41083E191E00C942C29CF93DF93CDB7F1
:1059A000DEB7A0970FB6F894DEBF0FBECDBF8091D3
:1059B0000C04853031F480910C04853091F10E9403
:1059C000982A0E94EC1080910C04843009F583E041
:1059D0008093E9008091E80082FF1AC08091E8007E
:1059E00090E085FF09C050E040E060E270E0CE0149
:1059F00001960E94E52D91E08091E8008B778093DD
:105A0000E800992329F060E2CE0101960E94FE177A
:105A1000A0960FB6F894DEBF0FBECDBFDF91CF9139
:105A200008950E94522A80910A04882321F20E943C
:105A3000812A882309F4BFCF0E94802D0E94170677
:105A4000BACF0C94232D292F33272330310521F190
:105A500068F42130310509F449C02230310509F4D8
:105A60004AC090E080E030E020E029C021323105DA
:105A700081F122323105A9F76330710590F7FB01FE
:105A8000EE0FFF1FE75CFE4F208131816A5C7E4F85
:105A9000FB01808190E013C099278130910599F036
:105AA000009741F08230910589F00397D1F6E8EF35
:105AB000F2E002C0E6E4F3E0849190E09F01FA0195
:105AC000318320830895EEE2F3E0F6CFE6E1F3E0E0
:105AD000F3CF6330710528F6660F771FFB01E15C99
